:100000000C945D000C9485000C9485000C94850084
:100010000C9485000C9485000C9485000C9485004C
:100020000C9485000C9485000C9485000C9485003C
:100030000C9485000C9485000C9485000C9485002C
:100040000C9474020C9485000C9485000C9485002B
:100050000C9485000C9485000C9485000C9485000C
:100060000C9485000C94850000000008000201003B
:100070000003040700000000000000000000000072
:10008000250028002B0000000000240027002A0083
:10009000040404040404040402020202020203032E
:1000A0000303030301020408102040800102040836
:1000B00010200102040810207E0311241FBECFEF80
:1000C000D8E0DEBFCDBF11E0A0E0B1E0ECE8F7E0A2
:1000D00002C005900D92A032B107D9F721E0A0E24D
:1000E000B1E001C01D92A134B207E1F710E0CDE507
:1000F000D0E004C02197FE010E94BE03CC35D10799
:10010000C9F70E94BE020C94C4030C94000090E056
:10011000FC01EC55FF4F249180579F4FFC018491C7
:10012000882399F090E0880F991FFC01EA57FF4F50
:10013000A591B491FC01E458FF4F859194918FB73C
:10014000F894EC91E22BEC938FBF089590E0FC01C2
:10015000E859FF4F2491FC01EC55FF4F3491FC010D
:10016000E057FF4FE491EE23C9F0222339F023300A
:1001700001F1A8F4213019F1223029F1F0E0EE0F5D
:10018000FF1FE458FF4FA591B4918FB7F894EC91FD
:10019000611126C030953E233C938FBF08952730D0
:1001A000A9F02830C9F0243049F7809180008F7D74
:1001B00003C0809180008F7780938000DFCF84B56B
:1001C0008F7784BDDBCF84B58F7DFBCF8091B0006E
:1001D0008F778093B000D2CF8091B0008F7DF9CF20
:1001E0003E2BDACFAF92BF92CF92DF92EF92FF9287
:1001F0000F931F93CF93DF936C017B018B01040F4F
:10020000151FEB015E01AE18BF08C017D10759F0EA
:100210006991D601ED91FC910190F081E02DC6012C
:100220000995892B79F7C501DF91CF911F910F9126
:10023000FF90EF90DF90CF90BF90AF90089508951A
:1002400090E080E00895FC0101900020E9F73197EB
:10025000AF01481B590BBC0189E291E00C94F200FC
:10026000CF93DF93EC0160E08E810E94A60061E0F5
:100270008E810E94A60060E08E810E94A6008BE81D
:1002800091E00197F1F7DF91CF910895CF92DF923E
:10029000EF92FF920F931F93CF93DF936C017C013A
:1002A00087E0E80EF11CD0E0C0E0062F10E0B801B6
:1002B0000C2E02C0759567950A94E2F76170F701FC
:1002C00081917F010E94A6002196C430D10579F763
:1002D000C601DF91CF911F910F91FF90EF90DF90BA
:1002E000CF900C943001CF92DF92EF92FF920F9358
:1002F0001F93CF93DF93EC01F62E642F8C810E9425
:10030000A6008D818F3F19F060E00E94A6000F2D9E
:1003100010E08F8584FF25C06E0187E0C80ED11CD8
:10032000F12CE12CB8010E2C02C0759567950A944A
:10033000E2F76170F60181916F010E94A600FFEF64
:10034000EF1AFF0A88E0E816F10461F7CE01DF91A9
:10035000CF911F910F91FF90EF90DF90CF900C9471
:100360003001B80184E0759567958A95E1F7CE0173
:100370000E9446016F2DCE01DF91CF911F910F9109
:10038000FF90EF90DF90CF900C94460140E0682FF3
:1003900089E291E00C947301CF93DF93823029F4CA
:1003A0009091380198609093380180933C011092AD
:1003B0003D0180E480933E0180E180933F0180E530
:1003C0008093400180912D010E94870080912E0131
:1003D0008F3F11F00E94870080912F010E948700BB
:1003E000C9E2D1E09E01295231408091380184FD5B
:1003F0000AC084E090E02196281739073CF48E81EA
:100400000E948700EFCF88E090E0F5CF8BE39DE07E
:100410000197F1F760E080912D010E94A60060E055
:1004200080912F010E94A60080912E018F3F19F02C
:1004300060E00E94A6008091380184FD39C063E02D
:1004400089E291E00E944601CBE4D6E4CE01019717
:10045000F1F763E089E291E00E9446012197F1F70C
:1004600063E089E291E00E94460183E592E0019712
:10047000F1F762E089E291E00E9446018091380143
:1004800080620E94C60184E0809339018CE00E9462
:10049000C60181E00E94C6018BE39FE10197F1F75D
:1004A00082E080933A0186E0DF91CF910C94C601FF
:1004B00080620E94C6018BE496E40197F1F7809177
:1004C000380180620E94C60183E592E00197F1F74E
:1004D0008091380180620E94C601D0CF41E00E9425
:1004E000730181E090E008951F920F920FB60F9272
:1004F00011242F933F938F939F93AF93BF9380913A
:10050000250190912601A0912701B09128013091F9
:10051000240123E0230F2D3758F50196A11DB11DAD
:10052000209324018093250190932601A093270115
:10053000B09328018091200190912101A091220186
:10054000B09123010196A11DB11D809320019093CC
:100550002101A0932201B0932301BF91AF919F91FC
:100560008F913F912F910F900FBE0F901F90189574
:1005700026E8230F0296A11DB11DD2CFCF93DF93A2
:10058000CDB7DEB7A1970FB6F894DEBF0FBECDBFD3
:10059000789484B5826084BD84B5816084BD85B55E
:1005A000826085BD85B5816085BD80916E0081606A
:1005B00080936E0010928100809181008260809310
:1005C0008100809181008160809381008091800012
:1005D0008160809380008091B10084608093B1003D
:1005E0008091B00081608093B00080917A00846037
:1005F00080937A0080917A00826080937A00809163
:100600007A00816080937A0080917A00806880937C
:100610007A001092C10082E00E94CC01E1E080915A
:100620003C018111E0E0E195F0E0E75DFE4F848957
:1006300080680E94C6018CE091E00E94230188EE50
:10064000C82E83E0D82EE12CF12C9AE0492E512CB3
:10065000612C712C20E0A22E20E0B22EE0913C0112
:10066000E23008F047C0E150F0E0E75DFE4F8489DA
:1006700080680E94C6012FB7F8946091250170919F
:10068000260180912701909128012FBFA701960193
:100690000E949C0319A28E010F5D1F4FCA01B90170
:1006A000A30192010E949C03605DF80162938F0197
:1006B000211531054105510589F7309719F0CF0112
:1006C0000E942301E0913C01E230B0F4E150F0E0FF
:1006D000E75DFE4F84898C5F80680E94C60188E1D7
:1006E00091E00E942301A114B10409F4B7CF0E9444
:1006F0000000B4CFE1E0B8CFE1E0E9CFE9E2F1E01A
:100700001382128284E091E09183808387E0848366
:100710008FEF858388E0868389E087838AE08087FE
:100720008BE081878CE08287138614861586168677
:10073000178681E00C94CC01A1E21A2EAA1BBB1BE8
:10074000FD010DC0AA1FBB1FEE1FFF1FA217B3079D
:10075000E407F50720F0A21BB30BE40BF50B661FB3
:10076000771F881F991F1A9469F760957095809577
:1007700090959B01AC01BD01CF010895EE0FFF1FC5
:0C0780000590F491E02D0994F894FFCF4F
:10078C00000000006E02F20020011F0148656C6C35
:10079C006F20576F726C64007365636F6E647300C7
:00000001FF
