:100000000C9462000C948A000C948A000C948A0070
:100010000C948A000C948A000C948A000C948A0038
:100020000C948A000C948A000C948A000C948A0028
:100030000C948A000C948A000C948A000C948A0018
:100040000C944B040C948A000C94BB040C949504FF
:100050000C948A000C948A000C948A000C948A00F8
:100060000C94ED040C948A0000000000240027008A
:100070002A000000000023002600290000000000E4
:10008000250028002B0004040404040404040202D4
:100090000202020203030303030301020408102007
:1000A0004080010204081020010204081020000012
:1000B0000008000201000003040700000000000027
:1000C00000000C0611241FBECFEFD8E0DEBFCDBF6D
:1000D00011E0A0E0B1E0E8E6F0E102C005900D9289
:1000E000A834B107D9F722E0A8E4B1E001C01D921D
:1000F000AE3BB207E1F710E0C2E6D0E004C02197C2
:10010000FE010E942C08C136D107C9F70E9454068F
:100110000C9432080C940000833081F028F4813074
:1001200099F08230A9F008958730A9F08830C9F09D
:100130008430B1F4809180008F7D03C08091800075
:100140008F7780938000089584B58F7784BD08955C
:1001500084B58F7DFBCF8091B0008F778093B00006
:1001600008958091B0008F7DF9CFCF93DF93282F32
:1001700030E0F901E255FF4F8491F901E656FF4F57
:10018000D491F901EA57FF4FC491CC2389F0811132
:100190000E948C00EC2FF0E0EE0FFF1FE458FF4FA1
:1001A000A591B4918FB7F894EC91DE2BDC938FBFBF
:1001B000DF91CF910895CF93DF93282F30E0F9019D
:1001C000E255FF4F8491F901E656FF4FD491F901B2
:1001D000EA57FF4FC491CC23A1F081110E948C00FB
:1001E000EC2FF0E0EE0FFF1FEE58FF4FA591B491FA
:1001F000EC91ED2381E090E009F480E0DF91CF9174
:10020000089580E090E0FACF3FB7F894809105021E
:1002100090910602A0910702B091080226B5A89B12
:1002200005C02F3F19F00196A11DB11D3FBFBA2F88
:10023000A92F982F8827BC01CD01620F711D811D48
:10024000911D42E0660F771F881F991F4A95D1F7CD
:1002500008958F929F92AF92BF92CF92DF92EF92CA
:10026000FF924B015C010E9404016B017C010E9422
:1002700004016C197D098E099F09683E7340810550
:100280009105A8F321E0821A9108A108B10888EE2F
:10029000C80E83E0D81EE11CF11C81149104A10456
:1002A000B10429F7FF90EF90DF90CF90BF90AF900F
:1002B0009F908F900895AF92BF92CF92DF92EF926E
:1002C000FF920F931F93CF93DF936C017B018B0100
:1002D000040F151FEB015E01AE18BF08C017D10750
:1002E00059F06991D601ED91FC910190F081E02DDA
:1002F000C6010995892B79F7C501DF91CF911F912F
:100300000F91FF90EF90DF90CF90BF90AF90089546
:1003100008950895FC01538D448D252F30E0842FDE
:1003200090E0821B930B541710F0CF96089501971D
:100330000895FC01918D828D981761F0A28DAE0F0A
:10034000BF2FB11D5D968C91928D9F5F9F73928F91
:1003500090E008958FEF9FEF0895FC01918D828DBD
:10036000981731F0828DE80FF11D858D90E008958A
:100370008FEF9FEF0895FC01918D228D892F90E0E2
:10038000805C9F4F821B91098F739927089589E0A4
:1003900092E00E94BB0121E0892B09F420E0822F2A
:1003A000089580E090E0892B29F00E94C701811117
:1003B0000C9400000895FC01A48DA80FB92FB11D65
:1003C000A35ABF4F2C91848D90E001968F7399278B
:1003D000848FA689B7892C93A089B1898C91837069
:1003E00080648C93938D848D981306C00288F38962
:1003F000E02D80818F7D80830895EF92FF920F938F
:100400001F93CF93DF93EC0181E0888F9B8D8C8DC0
:1004100098131AC0E889F989808185FF15C09FB7B4
:10042000F894EE89FF896083E889F9898081837077
:10043000806480839FBF81E090E0DF91CF911F9126
:100440000F91FF90EF900895F62E0B8D10E00F5F47
:100450001F4F0F731127E02E8C8D8E110CC00FB61D
:1004600007FCFACFE889F989808185FFF5CFCE01B5
:100470000E94DB01F1CFEB8DEC0FFD2FF11DE35A54
:10048000FF4FF0829FB7F8940B8FEA89FB89808138
:100490008062CFCFCF93DF93EC01888D8823B9F0B2
:1004A000AA89BB89E889F9898C9185FD03C080817F
:1004B00086FD0DC00FB607FCF7CF8C9185FFF2CFFC
:1004C000808185FFEDCFCE010E94DB01E9CFDF9176
:1004D000CF91089585ED8093BC008091BC0084FD90
:1004E000FCCF1092F70108952091AA01260F33271F
:1004F000331F21323105ECF42091F701FC0190E02B
:1005000080E0243069F082E00895A091AA01219151
:10051000AC0146575E4FA40FB52FB11D2C93019629
:10052000861798F38091AA01680F6093AA0180E072
:10053000089581E008950895E091FB018091FA010A
:10054000E81730F4F0E0E659FE4F808190E008951E
:100550008FEF9FEF08959091FB018091FA012FEFAB
:100560003FEF981748F4E92FF0E0E659FE4F20815D
:1005700030E09F5F9093FB01C90108958091FA01DB
:100580009091FB01891B990B0895CF92DF92EF9216
:10059000FF920F931F93CF93DF937C01CB018A01CE
:1005A00020916901222389F0EB016B01C40ED51E55
:1005B000CC15DD0569F06991D701ED91FC910190B1
:1005C000F081E02DC7010995F3CF642F0E947402DA
:1005D000C801DF91CF911F910F91FF90EF90DF90B5
:1005E000CF900895CF93DF931F92CDB7DEB7698385
:1005F000209169012223F9F02091F801203258F06E
:1006000021E030E0FC013383228390E080E00F9012
:10061000DF91CF9108958091F901E82FF0E0E75B39
:10062000FE4F998190838F5F8093F9018093F80149
:1006300081E090E0ECCF61E0CE0101960E9474026F
:10064000F7CFCF93FC01C48121E020936901C093CF
:1006500048011092F9011092F8018385682B86EA0F
:1006600092E00E94F2029091F801913208F03FC0AE
:100670008091F7018111FCCF82E08093F70181E046
:100680008093F6018FEF8093CD011092EF0190934C
:10069000EE01A9E4B1E0EEECF1E080E098132FC0A8
:1006A0001092F0018091F001CC0FC82BC093F001A3
:1006B0008091F501813039F51092F5018091F001BA
:1006C0008093BB008091BC0083FDF8CF85EC8093C4
:1006D000BC008091F7018230E1F38091CD018F3F22
:1006E00031F08091CD01803211F08091CD011092D6
:1006F000F9011092F80110926901CF9108952D919E
:1007000021938F5FCBCF85EEE2CF089590E080E01C
:100710000895FB0101900020E9F73197AF01461BD6
:10072000570BDC01ED91FC910280F381E02D0994DF
:100730008F929F92AF92BF92EF92FF920F931F936F
:10074000CF93DF93CDB7DEB7A1970FB6F894DEBF96
:100750000FBECDBF7C01FA01CB0119A2223008F4F3
:100760002AE08E010F5D1F4F822E912CB12CA12CFF
:10077000BF01A50194010E940A08F901CA016A306B
:100780000CF5605DD8016E938D01232B242B252B56
:1007900079F790E080E0109721F0BD01C7010E9439
:1007A0008903A1960FB6F894DEBF0FBECDBFDF91CF
:1007B000CF911F910F91FF90EF90BF90AF909F90BE
:1007C0008F900895695CDECF0F931F93CF938C01B8
:1007D000C62F0E9421036C2F6460C8010E94210370
:1007E0006C2F6B7FC8010E94210383EC90E001977E
:1007F000F1F7CF911F910F9108950F931F93CF930E
:10080000DF938C01D62FC42F607F642B0E94E403FA
:1008100080E1D89FB00111246C2BC801DF91CF91EA
:100820001F910F910C94E403CF93DF93CDB7DEB704
:1008300028970FB6F894DEBF0FBECDBF98E0E0E07A
:10084000F1E0DE01119601900D929A95E1F79091F9
:10085000BA02981708F48FEF90E0880F991F21E0F3
:1008600030E02C0F3D1F820F931FFC0160816068F8
:1008700040E082EB92E028960FB6F894DEBF0FBE00
:10088000CDBFDF91CF910C94FD0341E00E94FD03A9
:1008900081E090E008951F920F920FB60F921124FD
:1008A0002F933F938F939F93AF93BF9380910102B8
:1008B00090910202A0910302B091040230910002D3
:1008C00023E0230F2D3758F50196A11DB11D20936C
:1008D00000028093010290930202A0930302B0935E
:1008E00004028091050290910602A0910702B09146
:1008F00008020196A11DB11D809305029093060286
:10090000A0930702B0930802BF91AF919F918F917E
:100910003F912F910F900FBE0F901F90189526E8D2
:10092000230F0296A11DB11DD2CF1F920F920FB6B9
:100930000F9211242F933F934F935F936F937F9365
:100940008F939F93AF93BF93EF93FF9389E092E0D0
:100950000E94DB01FF91EF91BF91AF919F918F9129
:100960007F916F915F914F913F912F910F900FBEAB
:100970000F901F9018951F920F920FB60F9211248F
:100980002F938F939F93EF93FF93E0911902F09130
:100990001A028081E0911F02F091200282FD1BC0AB
:1009A0009081809122028F5F8F73209123028217A2
:1009B00041F0E0912202F0E0E75FFD4F958F8093D8
:1009C0002202FF91EF919F918F912F910F900FBE77
:1009D0000F901F9018958081F4CF1F920F920FB641
:1009E0000F9211242F933F934F935F936F937F93B5
:1009F0008F939F93AF93BF93EF93FF938091B90031
:100A0000887F803609F44AC0F0F5883209F4A7C01F
:100A100018F5803109F49BC0B8F4882309F4F9C0B3
:100A2000883009F494C0FF91EF91BF91AF919F91ED
:100A30008F917F916F915F914F913F912F910F9087
:100A40000FBE0F901F901895883109F488C080322E
:100A500051F78093CD0114C0803409F49DC040F457
:100A60008033B9F38833F9F68093CD0185ECB0C0BB
:100A7000803509F485C0883509F496C0883499F624
:100A80000E946A02D0CF883909F48CC038F58837C3
:100A900029F050F4883611F0803729F683E08093EE
:100AA000F7011092CC0157C0883809F47BC0803917
:100AB00019F0803809F0B7CF8091CC01803208F06E
:100AC00071C0E091CC0181E08E0F8093CC018091C8
:100AD000BB00F0E0E455FE4F80833DC0803B39F021
:100AE000E0F4803A09F479C0883A09F09CCF84E0B8
:100AF0008093F7011092AB011092AA01E091F301EB
:100B0000F091F40109958091AA0181110FC081E053
:100B10008093AA0110928A0109C0803C09F4A6CFF3
:100B2000883C09F4A3CF883B09F07DCFE091AB016D
:100B300081E08E0F8093AB01F0E0E657FE4F80819D
:100B40008093BB009091AB018091AA0129C0809154
:100B5000F0018093BB0085EC8093BC0064CF909142
:100B6000EF018091EE01981758F5E091EF0181E0D7
:100B70008E0F8093EF01F0E0E253FE4F8081E9CFCA
:100B8000E091EF0181E08E0F8093EF018091BB0037
:100B9000F0E0E253FE4F80839091EF018091EE01EF
:100BA0009817C8F285E8D8CFE091EF0181E08E0F69
:100BB0008093EF018091BB00F0E0E253FE4F808311
:100BC0008091F60181115CCF81E08093F50184EA88
:100BD0008093BC001092F70126CF85EC8093BC0077
:100BE0001092F7018091CC01803230F4E091CC0179
:100BF000F0E0E455FE4F10826091CC0170E0E0918E
:100C0000F101F091F2018CEA91E009951092CC018A
:100C10000ACF1092CD0134CFE9E0F2E013821282C4
:100C200088EE93E0A0E0B0E084839583A683B78349
:100C30002CE031E03183208325EC30E035872487B8
:100C400024EC30E03787268720EC30E0318B208B96
:100C500021EC30E0338B228B22EC30E0358B248B7F
:100C600026EC30E0378B268B118E128E138E148E6D
:100C7000E6EAF2E01382128284839583A683B78327
:100C80008EE191E091838083E2EBF2E013821282A5
:100C900080E391E09183808387E2848380E1818790
:100CA00082E0828713860895789484B5826084BD3B
:100CB00084B5816084BD85B5826085BD85B5816060
:100CC00085BD80916E00816080936E0010928100DE
:100CD0008091810082608093810080918100816099
:100CE000809381008091800081608093800080915A
:100CF000B10084608093B1008091B00081608093E6
:100D0000B00080917A00846080937A0080917A00AC
:100D1000826080937A0080917A00816080937A006B
:100D200080917A00806880937A001092C1001092BE
:100D3000FB011092FA011092F9011092F801109241
:100D4000F70181E08093F6011092F50182E10E94A3
:100D5000B50083E10E94B5008091B9008E7F809339
:100D6000B9008091B9008D7F8093B90088E48093A9
:100D7000B80085E48093BC0088E891E09093F4018A
:100D80008093F30189E891E09093F2018093F1015F
:100D90001092B7028091BC02823018F098E09093D4
:100DA000B7028093BA0262E370E080E090E00E94B4
:100DB00029016091BD0282EB92E00E94210368EE5E
:100DC00073E080E090E00E94290160E382EB92E012
:100DD0000E94E403CBE4D6E4CE010197F1F760E38F
:100DE00082EB92E00E94E4032197F1F760E382EB4B
:100DF00092E00E94E40383E592E00197F1F760E25C
:100E000082EB92E00E94E4036091B702606240E0EE
:100E100082EB92E00E94FD0384E08093B80240E000
:100E20006CE082EB92E00E94FD0340E061E082EB27
:100E300092E00E94FD03CBE3DFE1CE010197F1F7E1
:100E400082E08093B90240E066E082EB92E00E948B
:100E5000FD0340E062E082EB92E00E94FD032197F7
:100E6000F1F788E08093BD0260E082EB92E00E949F
:100E70002103E4EAF0E02491E0E9F0E084918823A2
:100E8000C1F090E0880F991FFC01E859FF4FC59110
:100E9000D491FC01E458FF4FA591B4919FB7F89409
:100EA0008881E22FE0958E2388838C91E823EC9350
:100EB0009FBFE0911902F0911A0282E08083E091D5
:100EC0001502F09116021082E0911702F0911802BB
:100ED0008FEC808310922102E0911D02F0911E029E
:100EE00086E08083E0911B02F0911C02808180618A
:100EF0008083E0911B02F0911C02808188608083D6
:100F0000E0911B02F0911C02808180688083E09157
:100F10001B02F0911C0280818F7D8083C0E0D0E0B5
:100F200001E010E080E00E94140468E371E082EBCD
:100F300092E00E94890388E00E94DB006C01990F17
:100F4000EE08FF082AE0B701A601F7FE0DC06DE22A
:100F500089E092E00E94FD0144275527BA014C190F
:100F60005D096E097F092AE089E092E00E949803FA
:100F700064E471E089E092E00E94890388E00E94C5
:100F8000DB00019799F58091FE019091FF01892B7B
:100F900069F5C090FC01D090FD018FEFC81AD80A06
:100FA000D092FD01C092FC0181E00E9414040D2C3E
:100FB000000CEE08FF082AE0B701A601F7FE0EC0FC
:100FC00041E06DE282EB92E00E94FD034427552749
:100FD000BA014C195D096E097F092AE082EB92E0A3
:100FE0000E9498031093FF010093FE0188E00E9485
:100FF000DB00892B21F41092FF011092FE01209753
:1010000009F490CF0E94C701882309F48BCF0E9476
:10101000000088CFA1E21A2EAA1BBB1BFD010DC048
:10102000AA1FBB1FEE1FFF1FA217B307E407F50798
:1010300020F0A21BB30BE40BF50B661F771F881F74
:10104000991F1A9469F760957095809590959B010A
:10105000AC01BD01CF010895EE0FFF1F0590F49183
:08106000E02D0994F894FFCF84
:10106800000040001400540000000000FD015B0176
:101078008A014A02BB019901AD0100000000F20299
:10108800C50286039B02BE02AB029C020000000060
:1010980045045B018603850348656C6C6F20576FB8
:0810A800726C64000D0A0000E7
:00000001FF
