:100000000C9462000C948A000C948A000C948A0070
:100010000C948A000C948A000C948A000C948A0038
:100020000C948A000C948A000C948A000C94A60309
:100030000C948A000C948A000C948A000C948A0018
:100040000C9404030C948A000C9474030C944E03D7
:100050000C948A000C948A000C948A000C948A00F8
:100060000C948A000C948A000000000023002600F3
:10007000290000000000240027002A0000000000E2
:10008000250028002B0004040404040404040202D4
:100090000202020203030303030301020408102007
:1000A0004080010204081020010204081020000012
:1000B0000008000201000003040700000000000027
:1000C0000000A70411241FBECFEFD8E0DEBFCDBFD4
:1000D00011E0A0E0B1E0E8E0F1E102C005900D928E
:1000E000A032B107D9F721E0A0E2B1E001C01D9232
:1000F000A63FB207E1F710E0C2E6D0E004C02197C6
:10010000FE010E947C08C136D107C9F70E941E0576
:100110000C9482080C94000090E0FC01E255FF4F23
:100120002491FC01E656FF4F3491FC01EA57FF4F42
:10013000E491EE23C9F0222339F0233001F1A8F431
:10014000213019F1223029F1F0E0EE0FFF1FE458C1
:10015000FF4FA591B4918FB7F894EC91611126C02F
:1001600030953E233C938FBF08952730A9F0283067
:10017000C9F0243049F7809180008F7D03C08091C1
:1001800080008F7780938000DFCF84B58F7784BD28
:10019000DBCF84B58F7DFBCF8091B0008F778093CC
:1001A000B000D2CF8091B0008F7DF9CF3E2BDACF57
:1001B000CF93DF9390E0FC01E656FF4F24918A57DE
:1001C0009F4FFC0184918823D1F090E0880F991F04
:1001D000FC01EE58FF4FA591B491FC01E458FF4F8C
:1001E000C591D49161110EC09FB7F8948C91E22F04
:1001F000E0958E238C932881E223E8839FBFDF91D3
:10020000CF9108958FB7F894EC91E22BEC938FBFC8
:10021000F6CF3FB7F89480912A0190912B01A091DD
:100220002C01B0912D0126B5A89B05C02F3F19F0D8
:100230000196A11DB11D3FBFBA2FA92F982F882766
:10024000BC01CD01620F711D811D911D42E0660F41
:10025000771F881F991F4A95D1F70895AF92BF92D3
:10026000CF92DF92EF92FF920F931F93CF93DF9382
:100270006C017B018B01040F151FEB015E01AE18B1
:10028000BF08C017D10759F06991D601ED91FC91D3
:100290000190F081E02DC6010995892B79F7C50100
:1002A000DF91CF911F910F91FF90EF90DF90CF9052
:1002B000BF90AF900895FC01538D448D252F30E001
:1002C000842F90E0821B930B541710F0CF96089563
:1002D00001970895FC01918D828D981761F0A28D90
:1002E000AE0FBF2FB11D5D968C91928D9F5F9F7356
:1002F000928F90E008958FEF9FEF0895FC01918D0C
:10030000828D981731F0828DE80FF11D858D90E078
:1003100008958FEF9FEF0895FC01918D228D892F15
:1003200090E0805C9F4F821B91098F7399270895FD
:100330008EE291E00E948C0121E0892B09F420E0FB
:10034000822F089580E090E0892B29F00E94980187
:1003500081110C9400000895FC01A48DA80FB92F01
:10036000B11DA35ABF4F2C91848D90E001968F73DD
:100370009927848FA689B7892C93A089B1898C91FC
:10038000837080648C93938D848D981306C002884B
:10039000F389E02D80818F7D80830895EF92FF9215
:1003A0000F931F93CF93DF93EC0181E0888F9B8D98
:1003B0008C8D98131AC0E889F989808185FF15C052
:1003C0009FB7F894EE89FF896083E889F989808175
:1003D0008370806480839FBF81E090E0DF91CF9144
:1003E0001F910F91FF90EF900895F62E0B8D10E066
:1003F0000F5F1F4F0F731127E02E8C8D8E110CC0D5
:100400000FB607FCFACFE889F989808185FFF5CF1F
:10041000CE010E94AC01F1CFEB8DEC0FFD2FF11D51
:10042000E35AFF4FF0829FB7F8940B8FEA89FB895C
:1004300080818062CFCFCF93DF93EC01888D8823BA
:10044000B9F0AA89BB89E889F9898C9185FD03C037
:10045000808186FD0DC00FB607FCF7CF8C9185FF1C
:10046000F2CF808185FFEDCFCE010E94AC01E9CFB4
:10047000DF91CF9108958F929F92AF92BF92FF929A
:100480000F931F93CF93DF93FC01F0808BE08F15C8
:1004900008F44AC0828108E512E0081B110987FDB3
:1004A0001395000F111F000F111F8181C8E8D0E0C4
:1004B000C81BD10987FDD395CC0FDD1FCC0FDD1FE5
:1004C0004E010D2E000CAA08BB089801012E000C4D
:1004D000440B550B281939094A095B09DB010E94B5
:1004E000060724EB30E040E050E00E94DC06820E7C
:1004F000931EA41EB51E8C169D062CF0E8018016D6
:1005000091060CF4E4012297CC0FDD1F2FB7F8946D
:100510008F2D90E0FC01EE0FFF1FE80FF91FE55350
:10052000FE4FD283C1832FBFDF91CF911F910F91D7
:10053000FF90BF90AF909F908F900895892B79F492
:100540001092800082E080938100109285001092CA
:100550008400B19A80916F00826080936F0008954B
:10056000FC0101900020E9F73197AF01481B590BBE
:10057000BC018EE291E00C942E010F931F9360E07A
:1005800089E00E948C0083E090E00197F1F761E040
:1005900089E00E948C0083E290E00197F1F760E02F
:1005A00089E00E948C00E4EAF0E06491E0E9F0E088
:1005B000E491F0E0EE0FFF1FE859FF4F8591949111
:1005C00000E412E42FE030E0462F0E94620461153F
:1005D00071058105910529F06F5F7F4F8F4F9F4F08
:1005E0009F700E94770728E23EE74CE05DE30E949F
:1005F000DB0720E030E040E05FE30E94DB070E9481
:100600003F071F910F9108951F920F920FB60F92FF
:1006100011242F933F938F939F93AF93BF93809118
:10062000260190912701A0912801B09129013091D4
:10063000250123E0230F2D3758F50196A11DB11D8B
:10064000209325018093260190932701A0932801F0
:10065000B093290180912A0190912B01A0912C0146
:10066000B0912D010196A11DB11D80932A01909397
:100670002B01A0932C01B0932D01BF91AF919F91BD
:100680008F913F912F910F900FBE0F901F90189553
:1006900026E8230F0296A11DB11DD2CF1F920F9203
:1006A0000FB60F9211242F933F934F935F936F9345
:1006B0007F938F939F93AF93BF93EF93FF938EE2BC
:1006C00091E00E94AC01FF91EF91BF91AF919F919A
:1006D0008F917F916F915F914F913F912F910F90EB
:1006E0000FBE0F901F9018951F920F920FB60F928A
:1006F00011242F938F939F93EF93FF93E0913E01EB
:10070000F0913F018081E0914401F091450182FD2B
:100710001BC09081809147018F5F8F7320914801AA
:10072000821741F0E0914701F0E0E25DFE4F958FC6
:1007300080934701FF91EF919F918F912F910F909F
:100740000FBE0F901F9018958081F4CF1F920F92CB
:100750000FB60F9211242F933F934F935F936F9394
:100760007F938F939F93AF93BF93CF93DF93EF9339
:10077000FF9380912001C091EF01D0E087FF24C05A
:100780001092850010928400809120018F5F8093E9
:10079000200180912001082E000C990B8C179D07D9
:1007A00024F4809120018C30C4F1809184009091D8
:1007B0008500049680349C4908F47AC080918400B6
:1007C00090918500049676C080912001082E000C3F
:1007D000990B8C179D07C4F6E09120018E2FEE0F28
:1007E000990BFC01EE0FFF1FE80FF91FE553FE4FB9
:1007F000808186FFC9CFE09120018E2FEE0F990BEB
:10080000FC01EE0FFF1FE80FF91FE553FE4F80813B
:1008100060E08F730E948C00B7CF209184003091EC
:100820008500E09120018E2FEE0F990BFC01EE0F59
:10083000FF1FE80FF91FE553FE4F81819281820F60
:10084000931F9093890080938800E09120018E2F60
:10085000EE0F990BFC01EE0FFF1FE80FF91FE55398
:10086000FE4F808186FF11C0E09120018E2FEE0F98
:10087000990BFC01EE0FFF1FE80FF91FE553FE4F28
:10088000808161E08F730E948C00FF91EF91DF9176
:10089000CF91BF91AF919F918F917F916F915F9118
:1008A0004F913F912F910F900FBE0F901F90189571
:1008B00080E49CE990938900809388008FEF809377
:1008C0002001E3CFCF92DF92EF92FF920F931F931D
:1008D000E82FF92F05C0015011092109310961F1F3
:1008E000908196239417B9F305C00150110921098D
:1008F000310911F1908196239413F7CFC12CD12C9B
:10090000E12CF12C0AC08FEFC81AD80AE80AF80ABD
:100910000C151D052E053F0579F08081862384176F
:1009200091F36C2D7D2D8E2D9F2D1F910F91FF909A
:10093000EF90DF90CF90089560E070E080E090E06D
:100940001F910F91FF90EF90DF90CF90089510923C
:1009500031011092300188EE93E0A0E0B0E0809386
:10096000320190933301A0933401B093350184E0B8
:1009700091E090932F0180932E0185EC90E090936D
:100980003B0180933A0184EC90E090933D01809389
:100990003C0180EC90E090933F0180933E0181EC1C
:1009A00090E0909341018093400182EC90E090931D
:1009B00043018093420186EC90E09093450180933F
:1009C000440110924701109248011092490110927F
:1009D0004A018091EF018C3048F591E0980F909397
:1009E000EF018093F30190E0FC01EE0FFF1FE80F91
:1009F000F91FE553FE4F88EB9BE092838183809142
:100A0000EF018C30B8F491E0980F9093EF01809350
:100A1000F00190E0FC01EE0FFF1FE80FF91FE55316
:100A2000FE4F88EB9BE09283818308958FEF809344
:100A3000F301E5CF8FEF8093F0010895CF93DF931B
:100A4000CDB7DEB7A1970FB6F894DEBF0FBECDBF0E
:100A5000789484B5826084BD84B5816084BD85B599
:100A6000826085BD85B5816085BD80916E008160A5
:100A700080936E001092810080918100826080934B
:100A8000810080918100816080938100809180004D
:100A90008160809380008091B10084608093B10078
:100AA0008091B00081608093B00080917A00846072
:100AB00080937A0080917A00826080937A0080919E
:100AC0007A00816080937A0080917A0080688093B8
:100AD0007A001092C10061E089E00E94D80060E0D5
:100AE0008AE00E94D800E0913E01F0913F0182E04F
:100AF0008083E0913A01F0913B011082E0913C014A
:100B0000F0913D018FEC808310924601E09142010B
:100B1000F091430186E08083E0914001F091410132
:100B2000808180618083E0914001F091410180816A
:100B300088608083E0914001F0914101808180686C
:100B40008083E0914001F091410180818F7D80831D
:100B50008091F3018C3008F043C061E08BE00E948B
:100B6000D8008091F301282F30E0F901EE0FFF1F2C
:100B7000E20FF31FE553FE4F9081907C9B609083C2
:100B80001092F4011092F5012CE0622F0E9470087F
:100B900090E0829FB001112430E020E0AB01420FD1
:100BA000531FFA01EE0FFF1FE40FF51FE553FE4F31
:100BB000408146FD07C02F5F3F4F2C30310571F754
:100BC0000E949E02E091F3018E2F90E0FC01EE0F57
:100BD000FF1FE80FF91FE553FE4F8081806480837B
:100BE0008091F0018C3008F043C061E08CE00E94FD
:100BF000D8008091F001282F30E0F901EE0FFF1F9F
:100C0000E20FF31FE553FE4F9081907C9C60908330
:100C10001092F1011092F2012CE0622F0E947008F4
:100C200090E0829FB001112430E020E0AB01420F40
:100C3000531FFA01EE0FFF1FE40FF51FE553FE4FA0
:100C4000408146FD07C02F5F3F4F2C30310571F7C3
:100C50000E949E02E091F0018E2F90E0FC01EE0FC9
:100C6000FF1FE80FF91FE553FE4F808180648083EA
:100C70009AE0892E912CA12CB12C00E010E00E946A
:100C8000BD02609321017093220180932301909310
:100C9000240182E191E00E94B002C0902101D09035
:100CA0002201E0902301F0902401F7FE6CC06DE278
:100CB0008EE291E00E94CE0122273327A9012C1950
:100CC0003D094E095F0919A2CE0181967C01CA0136
:100CD000B901A50194010E940E07605DF7016293BE
:100CE0007F01211531054105510589F7E114F10412
:100CF00019F0C7010E94B0028DE191E00E94B0029C
:100D00000E9409012B013C0184E6C82ED12CE12C64
:100D1000F12C0E9409016419750986099709683E3A
:100D2000734081059105A8F3F1E0CF1AD108E108DD
:100D3000F10828EE420E23E0521E611C711CC11402
:100D4000D104E104F10429F70E94BD026531710567
:100D50008105910574F166E470E083EF91E00E94F3
:100D60003B0261EA70E080EF91E00E943B020115D6
:100D7000110509F484CF0E949801882309F47FCFDC
:100D80000E9400007CCFA701960119A2CE01819696
:100D90007C01CA01B901A50194010E940E07605DA2
:100DA000F70162937F01211531054105510589F74E
:100DB0009DCF61EA70E0D1CF052E97FB1EF4009421
:100DC0000E94F30657FD07D00E940E0707FC03D0D0
:100DD0004EF40C94F30650954095309521953F4F75
:100DE0004F4F5F4F089590958095709561957F4F17
:100DF0008F4F9F4F08950E943007A59F900DB49F7D
:100E0000900DA49F800D911D11240895B7FF0C949F
:100E1000FB060E94FB06821B930B0895A1E21A2E8B
:100E2000AA1BBB1BFD010DC0AA1FBB1FEE1FFF1F8E
:100E3000A217B307E407F50720F0A21BB30BE40BDE
:100E4000F50B661F771F881F991F1A9469F7609525
:100E50007095809590959B01AC01BD01CF010895DF
:100E6000A29FB001B39FC001A39F700D811D1124EB
:100E7000911DB29F700D811D1124911D08950E9436
:100E800046076894B1110C94D50708950E94BA07DB
:100E900088F09F5798F0B92F9927B751B0F0E1F03B
:100EA000660F771F881F991F1AF0BA95C9F714C0EB
:100EB000B13091F00E94D407B1E008950C94D407AA
:100EC000672F782F8827B85F39F0B93FCCF3869524
:100ED00077956795B395D9F73EF490958095709581
:100EE00061957F4F8F4F9F4F0895E89409C097FBFE
:100EF0003EF490958095709561957F4F8F4F9F4FF1
:100F00009923A9F0F92F96E9BB279395F695879534
:100F100077956795B795F111F8CFFAF4BB0F11F4F7
:100F200060FF1BC06F5F7F4F8F4F9F4F16C088239E
:100F300011F096E911C0772321F09EE8872F762FD4
:100F400005C0662371F096E8862F70E060E02AF015
:100F50009A95660F771F881FDAF7880F9695879501
:100F600097F9089557FD9058440F551F59F05F3F6A
:100F700071F04795880F97FB991F61F09F3F79F0BB
:100F800087950895121613061406551FF2CF46953D
:100F9000F1DF08C0161617061806991FF1CF8695BF
:100FA0007105610508940895E894BB2766277727A3
:100FB000CB0197F908950E94EE070C945F080E94F8
:100FC000510838F00E94580820F0952311F00C9435
:100FD00048080C944E0811240C94D5070E94B207BF
:100FE00070F3959FC1F3950F50E0551F629FF0017C
:100FF000729FBB27F00DB11D639FAA27F00DB11D95
:10100000AA1F649F6627B00DA11D661F829F22271D
:10101000B00DA11D621F739FB00DA11D621F839FA4
:10102000A00D611D221F749F3327A00D611D231F7A
:10103000849F600D211D822F762F6A2F11249F57C8
:1010400050409AF0F1F088234AF0EE0FFF1FBB1FCB
:10105000661F771F881F91505040A9F79E3F51058A
:1010600080F00C9448080C94D5075F3FE4F3983E59
:10107000D4F3869577956795B795F795E7959F5F34
:10108000C1F7FE2B880F911D9695879597F90895C6
:1010900097F99F6780E870E060E008959FEF80EC2B
:1010A000089500240A9416161706180609060895CE
:1010B00000240A9412161306140605060895092E34
:1010C0000394000C11F4882352F0BB0F40F4BF2BA3
:1010D00011F460FF04C06F5F7F4F8F4F9F4F0895E3
:1010E000991B79E004C0991F961708F0961B881F7A
:1010F0007A95C9F780950895EE0FFF1F0590F4913A
:08110000E02D0994F894FFCFE3
:1011080000000000CE012E015B011B028C016A0168
:101118007E0144697374616E63653A20000D0A00AC
:00000001FF
